:1000000029C036C035C034C033C032C031C030C062
:100010002FC02EC0000102030405060708090A0BC1
:100020000C0D0E0F101112131415161718191A1B98
:100030001C1D1E1F202122232425262728292A2B88
:100040002C2D2E2F303132333435363738393A3B78
:100050003C3D3E3F11241FBECFE9CDBF20E0A0E6CE
:10006000B0E001C01D92A436B207E1F72AD069C002
:10007000C7CFA0E0B0E07727662720E838E341E06B
:1000800050E03DD03093630020936200089580914A
:100090006000909161002091620030916300820FB6
:1000A000931F9093610080936000E0916000F09155
:1000B0006100EF2FFF27E695E695EC5EFF4F8491F8
:1000C0000895B99ABA9A8FB583608FBD83B7886057
:1000D00083BF8FB580628FBD83B7816083BF80E4AB
:1000E00086BFC29A82E393E2C4DFD1DF89BDC298A2
:1000F0008BE291E00197F1F700C00000F2CFA1E29E
:100100001A2EAA1BBB1BFD010DC0AA1FBB1FEE1F91
:10011000FF1FA217B307E407F50720F0A21BB30BDC
:10012000E40BF50B661F771F881F991F1A9469F758
:1001300060957095809590959B01AC01BD01CF01B4
:060140000895F894FFCFC2
:00000001FF
