:1000000049C056C055C054C053C052C051C050C062
:100010004FC04EC0000102030405060708090A0B81
:100020000C0D0E0F101112131415161718191A1B98
:100030001C1D1E1F202122232425262728292A2B88
:100040002C2D2E2F303132333435363738393A3B78
:100050003C3D3E3F404142434445464748494A4B68
:100060004C4D4E4F505152535455565758595A5B58
:100070005C5D5E5F606162636465666768696A6B48
:100080006C6D6E6F707172737475767778797A7B38
:100090007C7D7E7F11241FBECFE9CDBF20E0A0E68E
:1000A000B0E001C01D92A536B207E1F72AD0A1C188
:1000B000A7CF20E030E040E857E430D120E030E046
:1000C0004AEF55E441D0A8D0709364006093630078
:1000D00008958091610090916200209163003091B9
:1000E0006400820F931F9093620080936100E091FF
:1000F0006100F0916200EF2FFF27EC5EFF4F8491CB
:10010000089581E087BBB99A8FB583608FBD83B7AF
:1001100083BF8FB580688FBD83B7816083BFCFEF0A
:10012000C19A60E070E08AE794E4C3DFC0936000A6
:10013000D0DF86BF88B38D7B88BB8BE291E00197CF
:10014000F1F700C00000ECCF0CD0AEC0A6D040F05C
:100150009DD030F021F45F3F19F08FC05111D8C00D
:1001600092C0B3D098F39923C9F35523B1F3951BEB
:10017000550BBB27AA2762177307840738F09F5FC8
:100180005F4F220F331F441FAA1FA9F333D00E2E37
:100190003AF0E0E830D091505040E695001CCAF7A4
:1001A00029D0FE2F27D0660F771F881FBB1F261769
:1001B00037074807AB07B0E809F0BB0B802DBF013C
:1001C000FF2793585F4F2AF09E3F510568F055C0B6
:1001D0009FC05F3FECF3983EDCF38695779567957B
:1001E000B795F7959F5FC9F7880F911D96958795ED
:1001F00097F90895E1E0660F771F881FBB1F62170C
:1002000073078407BA0720F0621B730B840BBA0BC9
:10021000EE1F88F7E095089504D06894B11178C076
:1002200008955BD088F09F5790F0B92F9927B75168
:10023000A0F0D1F0660F771F881F991F1AF0BA95AA
:10024000C9F712C0B13081F062D0B1E008955FC04B
:10025000672F782F8827B85F39F0B93FCCF38695A0
:1002600077956795B395D9F73EF4909580957095FD
:1002700061957F4F8F4F9F4F089597F99F6780E853
:1002800070E060E008959FEF80EC089500240A94E8
:100290001616170618060906089500240A94121661
:1002A0001306140605060895092E0394000C11F494
:1002B000882352F0BB0F40F4BF2B11F460FF04C041
:1002C0006F5F7F4F8F4F9F4F089557FD9058440F9A
:1002D000551F59F05F3F71F04795880F97FB991FA5
:1002E00061F09F3F79F08795089512161306140662
:1002F000551FF2CF4695F1DF08C0161617061806EF
:10030000991FF1CF86957105610508940895E894C9
:10031000BB2766277727CB0197F908950AD0C4CF6A
:10032000B5DF28F0BADF18F0952309F0A6CFABCFE0
:10033000EFCFCBDFA8F39923D9F35523C9F3950F5A
:1003400050E0551FAA27EE27FF27BB27002408945B
:10035000679520F4E20FF31FB41F0A1E220F331F0C
:10036000441FAA1F6695A9F7779530F4F30FB41FC1
:100370000A1E121E08F46395330F441FAA1F221F82
:10038000769599F7879520F4B40F0A1E121E631F05
:10039000440FAA1F221F331F8695A9F7862F712DA0
:1003A000602D11249F5750408AF0E1F088234AF0D5
:1003B000EE0FFF1FBB1F661F771F881F9150504015
:1003C000A9F79E3F510570F058CFA2CF5F3FECF3E5
:1003D000983EDCF3869577956795B795F795E79501
:1003E0009F5FC1F7FE2B880F911D9695879597F912
:0603F0000895F894FFCF10
:00000001FF
